{
  "_format": "hh-sol-artifact-1",
  "contractName": "project",
  "sourceName": "contracts/project.sol",
  "abi": [
    {
      "inputs": [
        {
          "internalType": "uint256",
          "name": "_interestRate",
          "type": "uint256"
        },
        {
          "internalType": "address",
          "name": "_mentalToken",
          "type": "address"
        },
        {
          "internalType": "address",
          "name": "_usdtToken",
          "type": "address"
        },
        {
          "internalType": "string",
          "name": "name",
          "type": "string"
        },
        {
          "internalType": "string",
          "name": "symbol",
          "type": "string"
        }
      ],
      "stateMutability": "nonpayable",
      "type": "constructor"
    },
    {
      "inputs": [
        {
          "internalType": "address",
          "name": "spender",
          "type": "address"
        },
        {
          "internalType": "uint256",
          "name": "allowance",
          "type": "uint256"
        },
        {
          "internalType": "uint256",
          "name": "needed",
          "type": "uint256"
        }
      ],
      "name": "ERC20InsufficientAllowance",
      "type": "error"
    },
    {
      "inputs": [
        {
          "internalType": "address",
          "name": "sender",
          "type": "address"
        },
        {
          "internalType": "uint256",
          "name": "balance",
          "type": "uint256"
        },
        {
          "internalType": "uint256",
          "name": "needed",
          "type": "uint256"
        }
      ],
      "name": "ERC20InsufficientBalance",
      "type": "error"
    },
    {
      "inputs": [
        {
          "internalType": "address",
          "name": "approver",
          "type": "address"
        }
      ],
      "name": "ERC20InvalidApprover",
      "type": "error"
    },
    {
      "inputs": [
        {
          "internalType": "address",
          "name": "receiver",
          "type": "address"
        }
      ],
      "name": "ERC20InvalidReceiver",
      "type": "error"
    },
    {
      "inputs": [
        {
          "internalType": "address",
          "name": "sender",
          "type": "address"
        }
      ],
      "name": "ERC20InvalidSender",
      "type": "error"
    },
    {
      "inputs": [
        {
          "internalType": "address",
          "name": "spender",
          "type": "address"
        }
      ],
      "name": "ERC20InvalidSpender",
      "type": "error"
    },
    {
      "inputs": [],
      "name": "EnforcedPause",
      "type": "error"
    },
    {
      "inputs": [],
      "name": "ExpectedPause",
      "type": "error"
    },
    {
      "inputs": [],
      "name": "ReentrancyGuardReentrantCall",
      "type": "error"
    },
    {
      "anonymous": false,
      "inputs": [
        {
          "indexed": true,
          "internalType": "address",
          "name": "owner",
          "type": "address"
        },
        {
          "indexed": true,
          "internalType": "address",
          "name": "spender",
          "type": "address"
        },
        {
          "indexed": false,
          "internalType": "uint256",
          "name": "value",
          "type": "uint256"
        }
      ],
      "name": "Approval",
      "type": "event"
    },
    {
      "anonymous": false,
      "inputs": [
        {
          "indexed": false,
          "internalType": "address",
          "name": "account",
          "type": "address"
        }
      ],
      "name": "Paused",
      "type": "event"
    },
    {
      "anonymous": false,
      "inputs": [
        {
          "indexed": true,
          "internalType": "address",
          "name": "from",
          "type": "address"
        },
        {
          "indexed": true,
          "internalType": "address",
          "name": "to",
          "type": "address"
        },
        {
          "indexed": false,
          "internalType": "uint256",
          "name": "value",
          "type": "uint256"
        }
      ],
      "name": "Transfer",
      "type": "event"
    },
    {
      "anonymous": false,
      "inputs": [
        {
          "indexed": false,
          "internalType": "address",
          "name": "account",
          "type": "address"
        }
      ],
      "name": "Unpaused",
      "type": "event"
    },
    {
      "anonymous": false,
      "inputs": [
        {
          "indexed": false,
          "internalType": "uint256",
          "name": "_interestrate",
          "type": "uint256"
        }
      ],
      "name": "updateInterest",
      "type": "event"
    },
    {
      "inputs": [
        {
          "internalType": "address",
          "name": "owner",
          "type": "address"
        },
        {
          "internalType": "address",
          "name": "spender",
          "type": "address"
        }
      ],
      "name": "allowance",
      "outputs": [
        {
          "internalType": "uint256",
          "name": "",
          "type": "uint256"
        }
      ],
      "stateMutability": "view",
      "type": "function"
    },
    {
      "inputs": [
        {
          "internalType": "address",
          "name": "spender",
          "type": "address"
        },
        {
          "internalType": "uint256",
          "name": "value",
          "type": "uint256"
        }
      ],
      "name": "approve",
      "outputs": [
        {
          "internalType": "bool",
          "name": "",
          "type": "bool"
        }
      ],
      "stateMutability": "nonpayable",
      "type": "function"
    },
    {
      "inputs": [
        {
          "internalType": "address",
          "name": "account",
          "type": "address"
        }
      ],
      "name": "balanceOf",
      "outputs": [
        {
          "internalType": "uint256",
          "name": "",
          "type": "uint256"
        }
      ],
      "stateMutability": "view",
      "type": "function"
    },
    {
      "inputs": [
        {
          "internalType": "address",
          "name": "",
          "type": "address"
        }
      ],
      "name": "balances",
      "outputs": [
        {
          "internalType": "uint256",
          "name": "",
          "type": "uint256"
        }
      ],
      "stateMutability": "view",
      "type": "function"
    },
    {
      "inputs": [
        {
          "internalType": "address",
          "name": "_account",
          "type": "address"
        }
      ],
      "name": "calculateReward",
      "outputs": [
        {
          "internalType": "uint256",
          "name": "",
          "type": "uint256"
        }
      ],
      "stateMutability": "view",
      "type": "function"
    },
    {
      "inputs": [],
      "name": "decimals",
      "outputs": [
        {
          "internalType": "uint8",
          "name": "",
          "type": "uint8"
        }
      ],
      "stateMutability": "view",
      "type": "function"
    },
    {
      "inputs": [
        {
          "internalType": "uint256",
          "name": "_amount",
          "type": "uint256"
        }
      ],
      "name": "deposit_usdt",
      "outputs": [],
      "stateMutability": "nonpayable",
      "type": "function"
    },
    {
      "inputs": [
        {
          "internalType": "address",
          "name": "",
          "type": "address"
        }
      ],
      "name": "durations",
      "outputs": [
        {
          "internalType": "uint256",
          "name": "",
          "type": "uint256"
        }
      ],
      "stateMutability": "view",
      "type": "function"
    },
    {
      "inputs": [
        {
          "internalType": "address",
          "name": "",
          "type": "address"
        }
      ],
      "name": "initial",
      "outputs": [
        {
          "internalType": "uint256",
          "name": "",
          "type": "uint256"
        }
      ],
      "stateMutability": "view",
      "type": "function"
    },
    {
      "inputs": [],
      "name": "interestRate",
      "outputs": [
        {
          "internalType": "uint256",
          "name": "",
          "type": "uint256"
        }
      ],
      "stateMutability": "view",
      "type": "function"
    },
    {
      "inputs": [],
      "name": "mentalToken",
      "outputs": [
        {
          "internalType": "contract IERC20",
          "name": "",
          "type": "address"
        }
      ],
      "stateMutability": "view",
      "type": "function"
    },
    {
      "inputs": [],
      "name": "name",
      "outputs": [
        {
          "internalType": "string",
          "name": "",
          "type": "string"
        }
      ],
      "stateMutability": "view",
      "type": "function"
    },
    {
      "inputs": [],
      "name": "owner",
      "outputs": [
        {
          "internalType": "address",
          "name": "",
          "type": "address"
        }
      ],
      "stateMutability": "view",
      "type": "function"
    },
    {
      "inputs": [],
      "name": "paused",
      "outputs": [
        {
          "internalType": "bool",
          "name": "",
          "type": "bool"
        }
      ],
      "stateMutability": "view",
      "type": "function"
    },
    {
      "inputs": [
        {
          "internalType": "address",
          "name": "",
          "type": "address"
        }
      ],
      "name": "rewards",
      "outputs": [
        {
          "internalType": "uint256",
          "name": "",
          "type": "uint256"
        }
      ],
      "stateMutability": "view",
      "type": "function"
    },
    {
      "inputs": [],
      "name": "symbol",
      "outputs": [
        {
          "internalType": "string",
          "name": "",
          "type": "string"
        }
      ],
      "stateMutability": "view",
      "type": "function"
    },
    {
      "inputs": [],
      "name": "totalSupply",
      "outputs": [
        {
          "internalType": "uint256",
          "name": "",
          "type": "uint256"
        }
      ],
      "stateMutability": "view",
      "type": "function"
    },
    {
      "inputs": [
        {
          "internalType": "address",
          "name": "to",
          "type": "address"
        },
        {
          "internalType": "uint256",
          "name": "value",
          "type": "uint256"
        }
      ],
      "name": "transfer",
      "outputs": [
        {
          "internalType": "bool",
          "name": "",
          "type": "bool"
        }
      ],
      "stateMutability": "nonpayable",
      "type": "function"
    },
    {
      "inputs": [
        {
          "internalType": "address",
          "name": "from",
          "type": "address"
        },
        {
          "internalType": "address",
          "name": "to",
          "type": "address"
        },
        {
          "internalType": "uint256",
          "name": "value",
          "type": "uint256"
        }
      ],
      "name": "transferFrom",
      "outputs": [
        {
          "internalType": "bool",
          "name": "",
          "type": "bool"
        }
      ],
      "stateMutability": "nonpayable",
      "type": "function"
    },
    {
      "inputs": [
        {
          "internalType": "uint256",
          "name": "_interestrate",
          "type": "uint256"
        }
      ],
      "name": "updateInterestRate",
      "outputs": [],
      "stateMutability": "nonpayable",
      "type": "function"
    },
    {
      "inputs": [],
      "name": "usdtToken",
      "outputs": [
        {
          "internalType": "contract IERC20",
          "name": "",
          "type": "address"
        }
      ],
      "stateMutability": "view",
      "type": "function"
    },
    {
      "inputs": [
        {
          "internalType": "uint256",
          "name": "_amount",
          "type": "uint256"
        }
      ],
      "name": "withdraw",
      "outputs": [],
      "stateMutability": "nonpayable",
      "type": "function"
    },
    {
      "inputs": [],
      "name": "withdraw_reward",
      "outputs": [],
      "stateMutability": "nonpayable",
      "type": "function"
    }
  ],
  "bytecode": "0x60806040523480156200001157600080fd5b50604051620027a6380380620027a683398181016040528101906200003791906200038a565b818181600390816200004a919062000691565b5080600490816200005c919062000691565b5050506000600560006101000a81548160ff021916908315150217905550600160068190555082600760006101000a81548173ffffffffffffffffffffffffffffffffffffffff021916908373ffffffffffffffffffffffffffffffffffffffff16021790555083600860006101000a81548173ffffffffffffffffffffffffffffffffffffffff021916908373ffffffffffffffffffffffffffffffffffffffff16021790555033600960006101000a81548173ffffffffffffffffffffffffffffffffffffffff021916908373ffffffffffffffffffffffffffffffffffffffff16021790555084600a81905550505050505062000778565b6000604051905090565b600080fd5b600080fd5b6000819050919050565b62000180816200016b565b81146200018c57600080fd5b50565b600081519050620001a08162000175565b92915050565b600073ffffffffffffffffffffffffffffffffffffffff82169050919050565b6000620001d382620001a6565b9050919050565b620001e581620001c6565b8114620001f157600080fd5b50565b6000815190506200020581620001da565b92915050565b600080fd5b600080fd5b6000601f19601f8301169050919050565b7f4e487b7100000000000000000000000000000000000000000000000000000000600052604160045260246000fd5b620002608262000215565b810181811067ffffffffffffffff8211171562000282576200028162000226565b5b80604052505050565b60006200029762000157565b9050620002a5828262000255565b919050565b600067ffffffffffffffff821115620002c857620002c762000226565b5b620002d38262000215565b9050602081019050919050565b60005b8381101562000300578082015181840152602081019050620002e3565b60008484015250505050565b6000620003236200031d84620002aa565b6200028b565b90508281526020810184848401111562000342576200034162000210565b5b6200034f848285620002e0565b509392505050565b600082601f8301126200036f576200036e6200020b565b5b8151620003818482602086016200030c565b91505092915050565b600080600080600060a08688031215620003a957620003a862000161565b5b6000620003b9888289016200018f565b9550506020620003cc88828901620001f4565b9450506040620003df88828901620001f4565b935050606086015167ffffffffffffffff81111562000403576200040262000166565b5b620004118882890162000357565b925050608086015167ffffffffffffffff81111562000435576200043462000166565b5b620004438882890162000357565b9150509295509295909350565b600081519050919050565b7f4e487b7100000000000000000000000000000000000000000000000000000000600052602260045260246000fd5b60006002820490506001821680620004a357607f821691505b602082108103620004b957620004b86200045b565b5b50919050565b60008190508160005260206000209050919050565b60006020601f8301049050919050565b600082821b905092915050565b600060088302620005237fffffffffffffffffffffffffffffffffffffffffffffffffffffffffffffffff82620004e4565b6200052f8683620004e4565b95508019841693508086168417925050509392505050565b6000819050919050565b6000620005726200056c62000566846200016b565b62000547565b6200016b565b9050919050565b6000819050919050565b6200058e8362000551565b620005a66200059d8262000579565b848454620004f1565b825550505050565b600090565b620005bd620005ae565b620005ca81848462000583565b505050565b5b81811015620005f257620005e6600082620005b3565b600181019050620005d0565b5050565b601f82111562000641576200060b81620004bf565b6200061684620004d4565b8101602085101562000626578190505b6200063e6200063585620004d4565b830182620005cf565b50505b505050565b600082821c905092915050565b6000620006666000198460080262000646565b1980831691505092915050565b600062000681838362000653565b9150826002028217905092915050565b6200069c8262000450565b67ffffffffffffffff811115620006b857620006b762000226565b5b620006c482546200048a565b620006d1828285620005f6565b600060209050601f831160018114620007095760008415620006f4578287015190505b62000700858262000673565b86555062000770565b601f1984166200071986620004bf565b60005b8281101562000743578489015182556001820191506020850194506020810190506200071c565b868310156200076357848901516200075f601f89168262000653565b8355505b6001600288020188555050505b505050505050565b61201e80620007886000396000f3fe608060405234801561001057600080fd5b506004361061014d5760003560e01c8063752a50a6116100c3578063a9059cbb1161007c578063a9059cbb146103b6578063a98ad46c146103e6578063af6bd8ce14610404578063d82e396214610434578063dd62ed3e14610464578063e9a7897e146104945761014d565b8063752a50a6146103065780637c3a00fd146103225780637d9f5663146103405780638da5cb5b1461035e57806395d89b411461037c5780639b4c9bb11461039a5761014d565b806327e235e31161011557806327e235e31461021e5780632e1a7d4d1461024e578063313ce5671461026a5780633c9dd1a3146102885780635c975abb146102b857806370a08231146102d65761014d565b806306fdde03146101525780630700037d14610170578063095ea7b3146101a057806318160ddd146101d057806323b872dd146101ee575b600080fd5b61015a61049e565b604051610167919061188c565b60405180910390f35b61018a60048036038101906101859190611911565b610530565b6040516101979190611957565b60405180910390f35b6101ba60048036038101906101b5919061199e565b610548565b6040516101c791906119f9565b60405180910390f35b6101d861056b565b6040516101e59190611957565b60405180910390f35b61020860048036038101906102039190611a14565b610575565b60405161021591906119f9565b60405180910390f35b61023860048036038101906102339190611911565b6105a4565b6040516102459190611957565b60405180910390f35b61026860048036038101906102639190611a67565b6105bc565b005b61027261090c565b60405161027f9190611ab0565b60405180910390f35b6102a2600480360381019061029d9190611911565b610915565b6040516102af9190611957565b60405180910390f35b6102c061092d565b6040516102cd91906119f9565b60405180910390f35b6102f060048036038101906102eb9190611911565b610944565b6040516102fd9190611957565b60405180910390f35b610320600480360381019061031b9190611a67565b61098c565b005b61032a610a5d565b6040516103379190611957565b60405180910390f35b610348610a63565b6040516103559190611b2a565b60405180910390f35b610366610a89565b6040516103739190611b54565b60405180910390f35b610384610aaf565b604051610391919061188c565b60405180910390f35b6103b460048036038101906103af9190611a67565b610b41565b005b6103d060048036038101906103cb919061199e565b610de3565b6040516103dd91906119f9565b60405180910390f35b6103ee610e06565b6040516103fb9190611b2a565b60405180910390f35b61041e60048036038101906104199190611911565b610e2c565b60405161042b9190611957565b60405180910390f35b61044e60048036038101906104499190611911565b610e44565b60405161045b9190611957565b60405180910390f35b61047e60048036038101906104799190611b6f565b610f02565b60405161048b9190611957565b60405180910390f35b61049c610f89565b005b6060600380546104ad90611bde565b80601f01602080910402602001604051908101604052809291908181526020018280546104d990611bde565b80156105265780601f106104fb57610100808354040283529160200191610526565b820191906000526020600020905b81548152906001019060200180831161050957829003601f168201915b5050505050905090565b600d6020528060005260406000206000915090505481565b6000806105536111b5565b90506105608185856111bd565b600191505092915050565b6000600254905090565b6000806105806111b5565b905061058d8582856111cf565b610598858585611263565b60019150509392505050565b600b6020528060005260406000206000915090505481565b336105c681610e44565b600d60008373ffffffffffffffffffffffffffffffffffffffff1673ffffffffffffffffffffffffffffffffffffffff16815260200190815260200160002060008282546106149190611c3e565b9250508190555042600c60008373ffffffffffffffffffffffffffffffffffffffff1673ffffffffffffffffffffffffffffffffffffffff16815260200190815260200160002081905550610667611357565b61066f611398565b60b4601e600e60003373ffffffffffffffffffffffffffffffffffffffff1673ffffffffffffffffffffffffffffffffffffffff168152602001908152602001600020546106bd9190611ca1565b10156106c857600080fd5b6000821161070b576040517f08c379a000000000000000000000000000000000000000000000000000000000815260040161070290611d1e565b60405180910390fd5b81600b60003373ffffffffffffffffffffffffffffffffffffffff1673ffffffffffffffffffffffffffffffffffffffff16815260200190815260200160002054101561078d576040517f08c379a000000000000000000000000000000000000000000000000000000000815260040161078490611d1e565b60405180910390fd5b81600b60003373ffffffffffffffffffffffffffffffffffffffff1673ffffffffffffffffffffffffffffffffffffffff16815260200190815260200160002060008282546107dc9190611d3e565b92505081905550600760009054906101000a900473ffffffffffffffffffffffffffffffffffffffff1673ffffffffffffffffffffffffffffffffffffffff1663a9059cbb33846040518363ffffffff1660e01b8152600401610840929190611d72565b6020604051808303816000875af115801561085f573d6000803e3d6000fd5b505050506040513d601f19601f820116820180604052508101906108839190611dc7565b506000600e60003373ffffffffffffffffffffffffffffffffffffffff1673ffffffffffffffffffffffffffffffffffffffff168152602001908152602001600020819055507ffb092bba525478ca80cad17f002a6ffe657292fc8171cfe75f800797ef0ebcc4826040516108f89190611957565b60405180910390a16109086113de565b5050565b60006012905090565b600e6020528060005260406000206000915090505481565b6000600560009054906101000a900460ff16905090565b60008060008373ffffffffffffffffffffffffffffffffffffffff1673ffffffffffffffffffffffffffffffffffffffff168152602001908152602001600020549050919050565b600960009054906101000a900473ffffffffffffffffffffffffffffffffffffffff1673ffffffffffffffffffffffffffffffffffffffff163373ffffffffffffffffffffffffffffffffffffffff1614610a1c576040517f08c379a0000000000000000000000000000000000000000000000000000000008152600401610a1390611e40565b60405180910390fd5b80600a819055507ffb092bba525478ca80cad17f002a6ffe657292fc8171cfe75f800797ef0ebcc481604051610a529190611957565b60405180910390a150565b600a5481565b600860009054906101000a900473ffffffffffffffffffffffffffffffffffffffff1681565b600960009054906101000a900473ffffffffffffffffffffffffffffffffffffffff1681565b606060048054610abe90611bde565b80601f0160208091040260200160405190810160405280929190818152602001828054610aea90611bde565b8015610b375780601f10610b0c57610100808354040283529160200191610b37565b820191906000526020600020905b815481529060010190602001808311610b1a57829003601f168201915b5050505050905090565b33610b4b81610e44565b600d60008373ffffffffffffffffffffffffffffffffffffffff1673ffffffffffffffffffffffffffffffffffffffff1681526020019081526020016000206000828254610b999190611c3e565b9250508190555042600c60008373ffffffffffffffffffffffffffffffffffffffff1673ffffffffffffffffffffffffffffffffffffffff1681526020019081526020016000208190555060008211610c27576040517f08c379a0000000000000000000000000000000000000000000000000000000008152600401610c1e90611d1e565b60405180910390fd5b42600e60003373ffffffffffffffffffffffffffffffffffffffff1673ffffffffffffffffffffffffffffffffffffffff1681526020019081526020016000208190555081600b60003373ffffffffffffffffffffffffffffffffffffffff1673ffffffffffffffffffffffffffffffffffffffff1681526020019081526020016000206000828254610cba9190611c3e565b925050819055506000600760009054906101000a900473ffffffffffffffffffffffffffffffffffffffff1673ffffffffffffffffffffffffffffffffffffffff166323b872dd3330866040518463ffffffff1660e01b8152600401610d2293929190611e60565b6020604051808303816000875af1158015610d41573d6000803e3d6000fd5b505050506040513d601f19601f82011682018060405250810190610d659190611dc7565b905080610da7576040517f08c379a0000000000000000000000000000000000000000000000000000000008152600401610d9e90611ee3565b60405180910390fd5b7ffb092bba525478ca80cad17f002a6ffe657292fc8171cfe75f800797ef0ebcc483604051610dd69190611957565b60405180910390a1505050565b600080610dee6111b5565b9050610dfb818585611263565b600191505092915050565b600760009054906101000a900473ffffffffffffffffffffffffffffffffffffffff1681565b600c6020528060005260406000206000915090505481565b600080600c60008473ffffffffffffffffffffffffffffffffffffffff1673ffffffffffffffffffffffffffffffffffffffff1681526020019081526020016000205442610e929190611d3e565b90506301e1853e600482600b60008773ffffffffffffffffffffffffffffffffffffffff1673ffffffffffffffffffffffffffffffffffffffff16815260200190815260200160002054610ee69190611f03565b610ef09190611f03565b610efa9190611ca1565b915050919050565b6000600160008473ffffffffffffffffffffffffffffffffffffffff1673ffffffffffffffffffffffffffffffffffffffff16815260200190815260200160002060008373ffffffffffffffffffffffffffffffffffffffff1673ffffffffffffffffffffffffffffffffffffffff16815260200190815260200160002054905092915050565b33610f9381610e44565b600d60008373ffffffffffffffffffffffffffffffffffffffff1673ffffffffffffffffffffffffffffffffffffffff1681526020019081526020016000206000828254610fe19190611c3e565b9250508190555042600c60008373ffffffffffffffffffffffffffffffffffffffff1673ffffffffffffffffffffffffffffffffffffffff16815260200190815260200160002081905550611034611357565b61103c611398565b6000600d60003373ffffffffffffffffffffffffffffffffffffffff1673ffffffffffffffffffffffffffffffffffffffff168152602001908152602001600020549050600081116110c3576040517f08c379a00000000000000000000000000000000000000000000000000000000081526004016110ba90611f91565b60405180910390fd5b6000600d60003373ffffffffffffffffffffffffffffffffffffffff1673ffffffffffffffffffffffffffffffffffffffff16815260200190815260200160002081905550600860009054906101000a900473ffffffffffffffffffffffffffffffffffffffff1673ffffffffffffffffffffffffffffffffffffffff1663a9059cbb33836040518363ffffffff1660e01b8152600401611165929190611d72565b6020604051808303816000875af1158015611184573d6000803e3d6000fd5b505050506040513d601f19601f820116820180604052508101906111a89190611dc7565b50506111b26113de565b50565b600033905090565b6111ca83838360016113e8565b505050565b60006111db8484610f02565b90507fffffffffffffffffffffffffffffffffffffffffffffffffffffffffffffffff811461125d578181101561124d578281836040517ffb8f41b200000000000000000000000000000000000000000000000000000000815260040161124493929190611fb1565b60405180910390fd5b61125c848484840360006113e8565b5b50505050565b600073ffffffffffffffffffffffffffffffffffffffff168373ffffffffffffffffffffffffffffffffffffffff16036112d55760006040517f96c6fd1e0000000000000000000000000000000000000000000000000000000081526004016112cc9190611b54565b60405180910390fd5b600073ffffffffffffffffffffffffffffffffffffffff168273ffffffffffffffffffffffffffffffffffffffff16036113475760006040517fec442f0500000000000000000000000000000000000000000000000000000000815260040161133e9190611b54565b60405180910390fd5b6113528383836115bf565b505050565b61135f61092d565b15611396576040517fd93c066500000000000000000000000000000000000000000000000000000000815260040160405180910390fd5b565b6002600654036113d4576040517f3ee5aeb500000000000000000000000000000000000000000000000000000000815260040160405180910390fd5b6002600681905550565b6001600681905550565b600073ffffffffffffffffffffffffffffffffffffffff168473ffffffffffffffffffffffffffffffffffffffff160361145a5760006040517fe602df050000000000000000000000000000000000000000000000000000000081526004016114519190611b54565b60405180910390fd5b600073ffffffffffffffffffffffffffffffffffffffff168373ffffffffffffffffffffffffffffffffffffffff16036114cc5760006040517f94280d620000000000000000000000000000000000000000000000000000000081526004016114c39190611b54565b60405180910390fd5b81600160008673ffffffffffffffffffffffffffffffffffffffff1673ffffffffffffffffffffffffffffffffffffffff16815260200190815260200160002060008573ffffffffffffffffffffffffffffffffffffffff1673ffffffffffffffffffffffffffffffffffffffff1681526020019081526020016000208190555080156115b9578273ffffffffffffffffffffffffffffffffffffffff168473ffffffffffffffffffffffffffffffffffffffff167f8c5be1e5ebec7d5bd14f71427d1e84f3dd0314c0f7b2291e5b200ac8c7c3b925846040516115b09190611957565b60405180910390a35b50505050565b6115c7611357565b6115d28383836115d7565b505050565b600073ffffffffffffffffffffffffffffffffffffffff168373ffffffffffffffffffffffffffffffffffffffff160361162957806002600082825461161d9190611c3e565b925050819055506116fc565b60008060008573ffffffffffffffffffffffffffffffffffffffff1673ffffffffffffffffffffffffffffffffffffffff168152602001908152602001600020549050818110156116b5578381836040517fe450d38c0000000000000000000000000000000000000000000000000000000081526004016116ac93929190611fb1565b60405180910390fd5b8181036000808673ffffffffffffffffffffffffffffffffffffffff1673ffffffffffffffffffffffffffffffffffffffff16815260200190815260200160002081905550505b600073ffffffffffffffffffffffffffffffffffffffff168273ffffffffffffffffffffffffffffffffffffffff16036117455780600260008282540392505081905550611792565b806000808473ffffffffffffffffffffffffffffffffffffffff1673ffffffffffffffffffffffffffffffffffffffff168152602001908152602001600020600082825401925050819055505b8173ffffffffffffffffffffffffffffffffffffffff168373ffffffffffffffffffffffffffffffffffffffff167fddf252ad1be2c89b69c2b068fc378daa952ba7f163c4a11628f55a4df523b3ef836040516117ef9190611957565b60405180910390a3505050565b600081519050919050565b600082825260208201905092915050565b60005b8381101561183657808201518184015260208101905061181b565b60008484015250505050565b6000601f19601f8301169050919050565b600061185e826117fc565b6118688185611807565b9350611878818560208601611818565b61188181611842565b840191505092915050565b600060208201905081810360008301526118a68184611853565b905092915050565b600080fd5b600073ffffffffffffffffffffffffffffffffffffffff82169050919050565b60006118de826118b3565b9050919050565b6118ee816118d3565b81146118f957600080fd5b50565b60008135905061190b816118e5565b92915050565b600060208284031215611927576119266118ae565b5b6000611935848285016118fc565b91505092915050565b6000819050919050565b6119518161193e565b82525050565b600060208201905061196c6000830184611948565b92915050565b61197b8161193e565b811461198657600080fd5b50565b60008135905061199881611972565b92915050565b600080604083850312156119b5576119b46118ae565b5b60006119c3858286016118fc565b92505060206119d485828601611989565b9150509250929050565b60008115159050919050565b6119f3816119de565b82525050565b6000602082019050611a0e60008301846119ea565b92915050565b600080600060608486031215611a2d57611a2c6118ae565b5b6000611a3b868287016118fc565b9350506020611a4c868287016118fc565b9250506040611a5d86828701611989565b9150509250925092565b600060208284031215611a7d57611a7c6118ae565b5b6000611a8b84828501611989565b91505092915050565b600060ff82169050919050565b611aaa81611a94565b82525050565b6000602082019050611ac56000830184611aa1565b92915050565b6000819050919050565b6000611af0611aeb611ae6846118b3565b611acb565b6118b3565b9050919050565b6000611b0282611ad5565b9050919050565b6000611b1482611af7565b9050919050565b611b2481611b09565b82525050565b6000602082019050611b3f6000830184611b1b565b92915050565b611b4e816118d3565b82525050565b6000602082019050611b696000830184611b45565b92915050565b60008060408385031215611b8657611b856118ae565b5b6000611b94858286016118fc565b9250506020611ba5858286016118fc565b9150509250929050565b7f4e487b7100000000000000000000000000000000000000000000000000000000600052602260045260246000fd5b60006002820490506001821680611bf657607f821691505b602082108103611c0957611c08611baf565b5b50919050565b7f4e487b7100000000000000000000000000000000000000000000000000000000600052601160045260246000fd5b6000611c498261193e565b9150611c548361193e565b9250828201905080821115611c6c57611c6b611c0f565b5b92915050565b7f4e487b7100000000000000000000000000000000000000000000000000000000600052601260045260246000fd5b6000611cac8261193e565b9150611cb78361193e565b925082611cc757611cc6611c72565b5b828204905092915050565b7f496e76616c696420616d6f756e74000000000000000000000000000000000000600082015250565b6000611d08600e83611807565b9150611d1382611cd2565b602082019050919050565b60006020820190508181036000830152611d3781611cfb565b9050919050565b6000611d498261193e565b9150611d548361193e565b9250828203905081811115611d6c57611d6b611c0f565b5b92915050565b6000604082019050611d876000830185611b45565b611d946020830184611948565b9392505050565b611da4816119de565b8114611daf57600080fd5b50565b600081519050611dc181611d9b565b92915050565b600060208284031215611ddd57611ddc6118ae565b5b6000611deb84828501611db2565b91505092915050565b7f726571756972656d656e74206661696c65640000000000000000000000000000600082015250565b6000611e2a601283611807565b9150611e3582611df4565b602082019050919050565b60006020820190508181036000830152611e5981611e1d565b9050919050565b6000606082019050611e756000830186611b45565b611e826020830185611b45565b611e8f6040830184611948565b949350505050565b7f4661696c65640000000000000000000000000000000000000000000000000000600082015250565b6000611ecd600683611807565b9150611ed882611e97565b602082019050919050565b60006020820190508181036000830152611efc81611ec0565b9050919050565b6000611f0e8261193e565b9150611f198361193e565b9250828202611f278161193e565b91508282048414831517611f3e57611f3d611c0f565b5b5092915050565b7f496e76616c696420726577617264000000000000000000000000000000000000600082015250565b6000611f7b600e83611807565b9150611f8682611f45565b602082019050919050565b60006020820190508181036000830152611faa81611f6e565b9050919050565b6000606082019050611fc66000830186611b45565b611fd36020830185611948565b611fe06040830184611948565b94935050505056fea2646970667358221220b7628f55fa4dc784f0a5ee31cedf26102509222d6de54fdd0ab357f1e9f7a60464736f6c63430008160033",
  "linkReferences": {},
  "deployedLinkReferences": {}
}